{
  "contractName": "ERC721Holder",
  "abi": [
    {
      "constant": false,
      "inputs": [
        {
          "name": "",
          "type": "address"
        },
        {
          "name": "",
          "type": "uint256"
        },
        {
          "name": "",
          "type": "bytes"
        }
      ],
      "name": "onERC721Received",
      "outputs": [
        {
          "name": "",
          "type": "bytes4"
        }
      ],
      "payable": false,
      "stateMutability": "nonpayable",
      "type": "function"
    }
  ],
  "bytecode": "0x60606040526000805463ffffffff191663f0b9e5ba179055341561002257600080fd5b610141806100316000396000f3006060604052600436106100405763ffffffff7c0100000000000000000000000000000000000000000000000000000000600035041663f0b9e5ba8114610045575b600080fd5b341561005057600080fd5b6100b76004803573ffffffffffffffffffffffffffffffffffffffff169060248035919060649060443590810190830135806020601f820181900481020160405190810160405281815292919060208401838380828437509496506100ec95505050505050565b6040517fffffffff00000000000000000000000000000000000000000000000000000000909116815260200160405180910390f35b6000547c01000000000000000000000000000000000000000000000000000000000293925050505600a165627a7a723058201e7a65524af347f9359a83735d11cd0ffd030e703340e961d886159b8658d41d0029",
  "source": "pragma solidity ^0.4.18;\n\nimport \"./ERC721Receiver.sol\";\n\ncontract ERC721Holder is ERC721Receiver {\n  function onERC721Received(address, uint256, bytes) public returns(bytes4) {\n    return ERC721_RECEIVED;\n  }\n}\n",
  "sourcePath": "/Users/j/Coding/dustbowl/contracts/ERC721Holder.sol",
  "compiler": {
    "name": "solc",
    "version": "0.4.19+commit.c4cbbb05.Emscripten.clang"
  },
  "schemaVersion": "1.0.1",
  "updatedAt": "2018-03-22T20:52:14.693Z"
}