{
  "contractName": "ERC721BasicToken",
  "abi": [
    {
      "anonymous": false,
      "inputs": [
        {
          "indexed": true,
          "name": "_from",
          "type": "address"
        },
        {
          "indexed": true,
          "name": "_to",
          "type": "address"
        },
        {
          "indexed": false,
          "name": "_tokenId",
          "type": "uint256"
        }
      ],
      "name": "Transfer",
      "type": "event"
    },
    {
      "anonymous": false,
      "inputs": [
        {
          "indexed": true,
          "name": "_owner",
          "type": "address"
        },
        {
          "indexed": true,
          "name": "_approved",
          "type": "address"
        },
        {
          "indexed": false,
          "name": "_tokenId",
          "type": "uint256"
        }
      ],
      "name": "Approval",
      "type": "event"
    },
    {
      "anonymous": false,
      "inputs": [
        {
          "indexed": true,
          "name": "_owner",
          "type": "address"
        },
        {
          "indexed": true,
          "name": "_operator",
          "type": "address"
        },
        {
          "indexed": false,
          "name": "_approved",
          "type": "bool"
        }
      ],
      "name": "ApprovalForAll",
      "type": "event"
    },
    {
      "constant": true,
      "inputs": [
        {
          "name": "_owner",
          "type": "address"
        }
      ],
      "name": "balanceOf",
      "outputs": [
        {
          "name": "",
          "type": "uint256"
        }
      ],
      "payable": false,
      "stateMutability": "view",
      "type": "function"
    },
    {
      "constant": true,
      "inputs": [
        {
          "name": "_tokenId",
          "type": "uint256"
        }
      ],
      "name": "ownerOf",
      "outputs": [
        {
          "name": "",
          "type": "address"
        }
      ],
      "payable": false,
      "stateMutability": "view",
      "type": "function"
    },
    {
      "constant": true,
      "inputs": [
        {
          "name": "_tokenId",
          "type": "uint256"
        }
      ],
      "name": "exists",
      "outputs": [
        {
          "name": "",
          "type": "bool"
        }
      ],
      "payable": false,
      "stateMutability": "view",
      "type": "function"
    },
    {
      "constant": false,
      "inputs": [
        {
          "name": "_to",
          "type": "address"
        },
        {
          "name": "_tokenId",
          "type": "uint256"
        }
      ],
      "name": "approve",
      "outputs": [],
      "payable": false,
      "stateMutability": "nonpayable",
      "type": "function"
    },
    {
      "constant": true,
      "inputs": [
        {
          "name": "_tokenId",
          "type": "uint256"
        }
      ],
      "name": "getApproved",
      "outputs": [
        {
          "name": "",
          "type": "address"
        }
      ],
      "payable": false,
      "stateMutability": "view",
      "type": "function"
    },
    {
      "constant": false,
      "inputs": [
        {
          "name": "_to",
          "type": "address"
        },
        {
          "name": "_approved",
          "type": "bool"
        }
      ],
      "name": "setApprovalForAll",
      "outputs": [],
      "payable": false,
      "stateMutability": "nonpayable",
      "type": "function"
    },
    {
      "constant": true,
      "inputs": [
        {
          "name": "_owner",
          "type": "address"
        },
        {
          "name": "_operator",
          "type": "address"
        }
      ],
      "name": "isApprovedForAll",
      "outputs": [
        {
          "name": "",
          "type": "bool"
        }
      ],
      "payable": false,
      "stateMutability": "view",
      "type": "function"
    },
    {
      "constant": false,
      "inputs": [
        {
          "name": "_from",
          "type": "address"
        },
        {
          "name": "_to",
          "type": "address"
        },
        {
          "name": "_tokenId",
          "type": "uint256"
        }
      ],
      "name": "transferFrom",
      "outputs": [],
      "payable": false,
      "stateMutability": "nonpayable",
      "type": "function"
    },
    {
      "constant": false,
      "inputs": [
        {
          "name": "_from",
          "type": "address"
        },
        {
          "name": "_to",
          "type": "address"
        },
        {
          "name": "_tokenId",
          "type": "uint256"
        }
      ],
      "name": "safeTransferFrom",
      "outputs": [],
      "payable": false,
      "stateMutability": "nonpayable",
      "type": "function"
    },
    {
      "constant": false,
      "inputs": [
        {
          "name": "_from",
          "type": "address"
        },
        {
          "name": "_to",
          "type": "address"
        },
        {
          "name": "_tokenId",
          "type": "uint256"
        },
        {
          "name": "_data",
          "type": "bytes"
        }
      ],
      "name": "safeTransferFrom",
      "outputs": [],
      "payable": false,
      "stateMutability": "nonpayable",
      "type": "function"
    }
  ],
  "bytecode": "0x60606040526000805463ffffffff191663f0b9e5ba179055341561002257600080fd5b610a3d806100316000396000f3006060604052600436106100a35763ffffffff7c0100000000000000000000000000000000000000000000000000000000600035041663081812fc81146100a8578063095ea7b3146100da57806323b872dd146100fe57806342842e0e146101265780634f558e791461014e5780636352211e1461017857806370a082311461018e578063a22cb465146101bf578063b88d4fde146101e3578063e985e9c51461024f575b600080fd5b34156100b357600080fd5b6100be600435610274565b604051600160a060020a03909116815260200160405180910390f35b34156100e557600080fd5b6100fc600160a060020a036004351660243561028f565b005b341561010957600080fd5b6100fc600160a060020a0360043581169060243516604435610389565b341561013157600080fd5b6100fc600160a060020a03600435811690602435166044356103c0565b341561015957600080fd5b6101646004356103f2565b604051901515815260200160405180910390f35b341561018357600080fd5b6100be60043561040f565b341561019957600080fd5b6101ad600160a060020a0360043516610439565b60405190815260200160405180910390f35b34156101ca57600080fd5b6100fc600160a060020a03600435166024351515610454565b34156101ee57600080fd5b6100fc600160a060020a036004803582169160248035909116916044359160849060643590810190830135806020601f820181900481020160405190810160405281815292919060208401838380828437509496506104e595505050505050565b341561025a57600080fd5b610164600160a060020a0360043581169060243516610510565b600090815260026020526040902054600160a060020a031690565b600061029a8261040f565b9050600160a060020a0383811690821614156102b557600080fd5b80600160a060020a031633600160a060020a031614806102da57506102da8133610510565b15156102e557600080fd5b6102ee82610274565b600160a060020a031615158061030c5750600160a060020a03831615155b156103845760008281526002602052604090819020805473ffffffffffffffffffffffffffffffffffffffff1916600160a060020a0386811691821790925591908316907f8c5be1e5ebec7d5bd14f71427d1e84f3dd0314c0f7b2291e5b200ac8c7c3b9259085905190815260200160405180910390a35b505050565b80610394338261053e565b151561039f57600080fd5b6103ba8484846020604051908101604052600080825261059d565b50505050565b806103cb338261053e565b15156103d657600080fd5b6103ba848484602060405190810160405260008152600161059d565b600090815260016020526040902054600160a060020a0316151590565b600081815260016020526040812054600160a060020a031680151561043357600080fd5b92915050565b600160a060020a031660009081526003602052604090205490565b33600160a060020a031682600160a060020a03161415151561047557600080fd5b33600160a060020a0390811660008181526004602090815260408083209487168084529490915290819020805460ff19168515151790557f17307eab39ab6107e8899845ad3d59bd9653f200f220920489ca2b5937696c3190849051901515815260200160405180910390a35050565b816104f0338261053e565b15156104fb57600080fd5b61050985858585600161059d565b5050505050565b600160a060020a03918216600090815260046020908152604080832093909416825291909152205460ff1690565b60008061054a8361040f565b905080600160a060020a031684600160a060020a03161480610585575083600160a060020a031661057a84610274565b600160a060020a0316145b8061059557506105958185610510565b949350505050565b600160a060020a03851615156105b257600080fd5b600160a060020a03841615156105c757600080fd5b6105d08361040f565b600160a060020a03858116911614156105e857600080fd5b6105f28584610673565b6105fc8584610723565b61060684846107b9565b80158061061a575061061a85858585610849565b151561062557600080fd5b83600160a060020a031685600160a060020a03167fddf252ad1be2c89b69c2b068fc378daa952ba7f163c4a11628f55a4df523b3ef8560405190815260200160405180910390a35050505050565b81600160a060020a03166106868261040f565b600160a060020a03161461069957600080fd5b600081815260026020526040902054600160a060020a03161561071f57600081815260026020526040808220805473ffffffffffffffffffffffffffffffffffffffff19169055600160a060020a038416907f8c5be1e5ebec7d5bd14f71427d1e84f3dd0314c0f7b2291e5b200ac8c7c3b9259084905190815260200160405180910390a35b5050565b81600160a060020a03166107368261040f565b600160a060020a03161461074957600080fd5b600160a060020a03821660009081526003602052604090205461077390600163ffffffff6109e116565b600160a060020a03909216600090815260036020908152604080832094909455918152600190915220805473ffffffffffffffffffffffffffffffffffffffff19169055565b600081815260016020526040902054600160a060020a0316156107db57600080fd5b6000818152600160208181526040808420805473ffffffffffffffffffffffffffffffffffffffff1916600160a060020a0388169081179091558452600390915290912054610829916109f3565b600160a060020a0390921660009081526003602052604090209190915550565b600061085d84600160a060020a0316610a09565b15806109d857506000809054906101000a90047c0100000000000000000000000000000000000000000000000000000000027bffffffffffffffffffffffffffffffffffffffffffffffffffffffff191684600160a060020a031663f0b9e5ba8786866000604051602001526040518463ffffffff167c01000000000000000000000000000000000000000000000000000000000281526004018084600160a060020a0316600160a060020a0316815260200183815260200180602001828103825283818151815260200191508051906020019080838360005b8381101561094f578082015183820152602001610937565b50505050905090810190601f16801561097c5780820380516001836020036101000a031916815260200191505b50945050505050602060405180830381600087803b151561099c57600080fd5b6102c65a03f115156109ad57600080fd5b505050604051805190507bffffffffffffffffffffffffffffffffffffffffffffffffffffffff1916145b95945050505050565b6000828211156109ed57fe5b50900390565b600082820183811015610a0257fe5b9392505050565b6000903b11905600a165627a7a723058205e6d446913d98cbc5966b8b1e398d1a3e3db916434cc07f9dcb601e43b06c8920029",
  "source": "pragma solidity ^0.4.18;\n\nimport \"./ERC721Basic.sol\";\nimport \"./ERC721Receiver.sol\";\nimport \"zeppelin-solidity/contracts/math/SafeMath.sol\";\nimport \"./AddressUtils.sol\";\n\n/**\n * @title ERC721 Non-Fungible Token Standard basic implementation\n * @dev see https://github.com/ethereum/eips/issues/721\n */\ncontract ERC721BasicToken is ERC721Basic {\n  using SafeMath for uint256;\n  using AddressUtils for address;\n\n  // Equals to bytes4(keccak256(\"onERC721Received(address,uint256,bytes)\"))\n  bytes4 ERC721_RECEIVED = 0xf0b9e5ba;\n\n  // Mapping from token ID to owner\n  mapping (uint256 => address) internal tokenOwner;\n\n  // Mapping from token ID to approved address\n  mapping (uint256 => address) internal tokenApprovals;\n\n  // Mapping from owner to number of owned token\n  mapping (address => uint256) internal ownedTokensCount;\n\n  // Mapping from owner to operator approvals\n  mapping (address => mapping (address => bool)) internal operatorApprovals;\n\n  /**\n  * @dev Guarantees msg.sender is owner of the given token\n  * @param _tokenId uint256 ID of the token to validate its ownership belongs to msg.sender\n  */\n  modifier onlyOwnerOf(uint256 _tokenId) {\n    require(ownerOf(_tokenId) == msg.sender);\n    _;\n  }\n\n  /**\n  * @dev Checks msg.sender can transfer a token, by being owner, approved, or operator\n  * @param _tokenId uint256 ID of the token to validate\n  */\n  modifier canTransfer(uint256 _tokenId) {\n    require(isApprovedOrOwner(msg.sender, _tokenId));\n    _;\n  }\n\n  /**\n  * @dev Gets the balance of the specified address\n  * @param _owner address to query the balance of\n  * @return uint256 representing the amount owned by the passed address\n  */\n  function balanceOf(address _owner) public view returns (uint256) {\n    return ownedTokensCount[_owner];\n  }\n\n  /**\n  * @dev Gets the owner of the specified token ID\n  * @param _tokenId uint256 ID of the token to query the owner of\n  * @return owner address currently marked as the owner of the given token ID\n  */\n  function ownerOf(uint256 _tokenId) public view returns (address) {\n    address owner = tokenOwner[_tokenId];\n    require(owner != address(0));\n    return owner;\n  }\n\n  /**\n  * @dev Returns whether the specified token exists\n  * @param _tokenId uint256 ID of the token to query the existance of\n  * @return whether the token exists\n  */\n  function exists(uint256 _tokenId) public view returns (bool) {\n    address owner = tokenOwner[_tokenId];\n    return owner != 0;\n  }\n\n  /**\n  * @dev Approves another address to transfer the given token ID\n  * @dev The zero address indicates there is no approved address.\n  * @dev There can only be one approved address per token at a given time.\n  * @dev Can only be called by the token owner or an approved operator.\n  * @param _to address to be approved for the given token ID\n  * @param _tokenId uint256 ID of the token to be approved\n  */\n  function approve(address _to, uint256 _tokenId) public {\n    address owner = ownerOf(_tokenId);\n    require(_to != owner);\n    require(msg.sender == owner || isApprovedForAll(owner, msg.sender));\n\n    if (getApproved(_tokenId) != 0 || _to != 0) {\n      tokenApprovals[_tokenId] = _to;\n      Approval(owner, _to, _tokenId);\n    }\n  }\n\n  /**\n   * @dev Gets the approved address for a token ID, or zero if no address set\n   * @param _tokenId uint256 ID of the token to query the approval of\n   * @return address currently approved for a the given token ID\n   */\n  function getApproved(uint256 _tokenId) public view returns (address) {\n    return tokenApprovals[_tokenId];\n  }\n\n\n  /**\n  * @dev Sets or unsets the approval of a given operator\n  * @dev An operator is allowed to transfer all tokens of the sender on their behalf\n  * @param _to operator address to set the approval\n  * @param _approved representing the status of the approval to be set\n  */\n  function setApprovalForAll(address _to, bool _approved) public {\n    require(_to != msg.sender);\n    operatorApprovals[msg.sender][_to] = _approved;\n    ApprovalForAll(msg.sender, _to, _approved);\n  }\n\n  /**\n   * @dev Tells whether an operator is approved by a given owner\n   * @param _owner owner address which you want to query the approval of\n   * @param _operator operator address which you want to query the approval of\n   * @return bool whether the given operator is approved by the given owner\n   */\n  function isApprovedForAll(address _owner, address _operator) public view returns (bool) {\n    return operatorApprovals[_owner][_operator];\n  }\n\n  /**\n  * @dev Transfers the ownership of a given token ID to another address\n  * @dev Usage of this method is discouraged, use `safeTransferFrom` whenever possible\n  * @dev Requires the msg sender to be the owner, approved, or operator\n  * @param _from current owner of the token\n  * @param _to address to receive the ownership of the given token ID\n  * @param _tokenId uint256 ID of the token to be transferred\n  */\n  function transferFrom(address _from, address _to, uint256 _tokenId) public canTransfer(_tokenId) {\n    clearApprovalAndTransfer(_from, _to, _tokenId, \"\", false);\n  }\n\n  /**\n  * @dev Safely transfers the ownership of a given token ID to another address\n  * @dev If the target address is a contract, it must implement `onERC721Received`,\n  *  which is called upon a safe transfer, and return the magic value\n  *  `bytes4(keccak256(\"onERC721Received(address,uint256,bytes)\"))`; otherwise,\n  *  the transfer is reverted.\n  * @dev Requires the msg sender to be the owner, approved, or operator\n  * @param _from current owner of the token\n  * @param _to address to receive the ownership of the given token ID\n  * @param _tokenId uint256 ID of the token to be transferred\n  */\n  function safeTransferFrom(address _from, address _to, uint256 _tokenId) public canTransfer(_tokenId) {\n    clearApprovalAndTransfer(_from, _to, _tokenId, \"\", true);\n  }\n\n  /**\n  * @dev Safely transfers the ownership of a given token ID to another address\n  * @dev If the target address is a contract, it must implement `onERC721Received`,\n  *  which is called upon a safe transfer, and return the magic value\n  *  `bytes4(keccak256(\"onERC721Received(address,uint256,bytes)\"))`; otherwise,\n  *  the transfer is reverted.\n  * @dev Requires the msg sender to be the owner, approved, or operator\n  * @param _from current owner of the token\n  * @param _to address to receive the ownership of the given token ID\n  * @param _tokenId uint256 ID of the token to be transferred\n  * @param _data bytes data to send along with a safe transfer check\n  */\n  function safeTransferFrom(address _from, address _to, uint256 _tokenId, bytes _data) public canTransfer(_tokenId) {\n    clearApprovalAndTransfer(_from, _to, _tokenId, _data, true);\n  }\n\n  /**\n   * @dev Returns whether the given spender can transfer a given token ID\n   * @param _spender address of the spender to query\n   * @param _tokenId uint256 ID of the token to be transferred\n   * @return bool whether the msg.sender is approved for the given token ID,\n   *  is an operator of the owner, or is the owner of the token\n   */\n  function isApprovedOrOwner(address _spender, uint256 _tokenId) internal view returns (bool) {\n    address owner = ownerOf(_tokenId);\n    return _spender == owner || getApproved(_tokenId) == _spender || isApprovedForAll(owner, _spender);\n  }\n\n  /**\n  * @dev Internal function to mint a new token\n  * @dev Reverts if the given token ID already exists\n  * @param _to The address that will own the minted token\n  * @param _tokenId uint256 ID of the token to be minted by the msg.sender\n  */\n  function doMint(address _to, uint256 _tokenId) internal {\n    require(_to != address(0));\n    addToken(_to, _tokenId);\n    Transfer(0x0, _to, _tokenId);\n  }\n\n  /**\n  * @dev Internal function to burn a specific token\n  * @dev Reverts if the token does not exist\n  * @param _tokenId uint256 ID of the token being burned by the msg.sender\n  */\n  function doBurn(address _owner, uint256 _tokenId) internal {\n    clearApproval(_owner, _tokenId);\n    removeToken(_owner, _tokenId);\n    Transfer(_owner, 0x0, _tokenId);\n  }\n\n  /**\n  * @dev Internal function to clear current approval and transfer the ownership of a given token ID\n  * @param _from address which you want to send tokens from\n  * @param _to address which you want to transfer the token to\n  * @param _tokenId uint256 ID of the token to be transferred\n  * @param _data bytes data to send along with a safe transfer check\n  * @param _safe bool whether to perform a safe transfer\n  */\n  function clearApprovalAndTransfer(address _from, address _to, uint256 _tokenId, bytes _data, bool _safe) internal {\n    require(_from != address(0));\n    require(_to != address(0));\n    require(_to != ownerOf(_tokenId));\n\n    clearApproval(_from, _tokenId);\n    removeToken(_from, _tokenId);\n    addToken(_to, _tokenId);\n\n    require(!_safe || checkAndCallSafeTransfer(_from, _to, _tokenId, _data));\n\n    Transfer(_from, _to, _tokenId);\n  }\n\n  /**\n  * @dev Internal function to clear current approval of a given token ID\n  * @dev Reverts if the given address is not indeed the owner of the token\n  * @param _owner owner of the token\n  * @param _tokenId uint256 ID of the token to be transferred\n  */\n  function clearApproval(address _owner, uint256 _tokenId) internal {\n    require(ownerOf(_tokenId) == _owner);\n    if (tokenApprovals[_tokenId] != 0) {\n      tokenApprovals[_tokenId] = 0;\n      Approval(_owner, 0, _tokenId);\n    }\n  }\n\n  /**\n  * @dev Internal function to add a token ID to the list of a given address\n  * @param _to address representing the new owner of the given token ID\n  * @param _tokenId uint256 ID of the token to be added to the tokens list of the given address\n  */\n  function addToken(address _to, uint256 _tokenId) internal {\n    require(tokenOwner[_tokenId] == address(0));\n    tokenOwner[_tokenId] = _to;\n    ownedTokensCount[_to] = ownedTokensCount[_to].add(1);\n  }\n\n  /**\n  * @dev Internal function to remove a token ID from the list of a given address\n  * @param _from address representing the previous owner of the given token ID\n  * @param _tokenId uint256 ID of the token to be removed from the tokens list of the given address\n  */\n  function removeToken(address _from, uint256 _tokenId) internal {\n    require(ownerOf(_tokenId) == _from);\n    ownedTokensCount[_from] = ownedTokensCount[_from].sub(1);\n    tokenOwner[_tokenId] = 0;\n  }\n\n  /**\n  * @dev Internal function to invoke `onERC721Received` on a target address\n  * @dev The call is not executed if the target address is not a contract\n  * @dev Returns whether the call correctly returned the expected magic value\n  * @param _from address representing the previous owner of the given token ID\n  * @param _to target address that will receive the tokens\n  * @param _tokenId uint256 ID of the token to be transferred\n  * @param _data bytes optional data to send along with the call\n  */\n  function checkAndCallSafeTransfer(address _from, address _to, uint256 _tokenId, bytes _data) internal returns (bool) {\n    return !_to.isContract() ||\n      (ERC721Receiver(_to).onERC721Received(_from, _tokenId, _data) == ERC721_RECEIVED);\n  }\n}\n",
  "sourcePath": "/Users/j/Coding/dustbowl/contracts/ERC721BasicToken.sol",
  "compiler": {
    "name": "solc",
    "version": "0.4.19+commit.c4cbbb05.Emscripten.clang"
  },
  "schemaVersion": "1.0.1",
  "updatedAt": "2018-03-22T20:52:14.691Z"
}