{
  "contractName": "ERC721Token",
  "abi": [
    {
      "constant": true,
      "inputs": [
        {
          "name": "_tokenId",
          "type": "uint256"
        }
      ],
      "name": "getApproved",
      "outputs": [
        {
          "name": "",
          "type": "address"
        }
      ],
      "payable": false,
      "stateMutability": "view",
      "type": "function"
    },
    {
      "constant": false,
      "inputs": [
        {
          "name": "_to",
          "type": "address"
        },
        {
          "name": "_tokenId",
          "type": "uint256"
        }
      ],
      "name": "approve",
      "outputs": [],
      "payable": false,
      "stateMutability": "nonpayable",
      "type": "function"
    },
    {
      "constant": false,
      "inputs": [
        {
          "name": "_from",
          "type": "address"
        },
        {
          "name": "_to",
          "type": "address"
        },
        {
          "name": "_tokenId",
          "type": "uint256"
        }
      ],
      "name": "transferFrom",
      "outputs": [],
      "payable": false,
      "stateMutability": "nonpayable",
      "type": "function"
    },
    {
      "constant": false,
      "inputs": [
        {
          "name": "_from",
          "type": "address"
        },
        {
          "name": "_to",
          "type": "address"
        },
        {
          "name": "_tokenId",
          "type": "uint256"
        }
      ],
      "name": "safeTransferFrom",
      "outputs": [],
      "payable": false,
      "stateMutability": "nonpayable",
      "type": "function"
    },
    {
      "constant": true,
      "inputs": [
        {
          "name": "_tokenId",
          "type": "uint256"
        }
      ],
      "name": "exists",
      "outputs": [
        {
          "name": "",
          "type": "bool"
        }
      ],
      "payable": false,
      "stateMutability": "view",
      "type": "function"
    },
    {
      "constant": true,
      "inputs": [
        {
          "name": "_tokenId",
          "type": "uint256"
        }
      ],
      "name": "ownerOf",
      "outputs": [
        {
          "name": "",
          "type": "address"
        }
      ],
      "payable": false,
      "stateMutability": "view",
      "type": "function"
    },
    {
      "constant": false,
      "inputs": [
        {
          "name": "_to",
          "type": "address"
        },
        {
          "name": "_approved",
          "type": "bool"
        }
      ],
      "name": "setApprovalForAll",
      "outputs": [],
      "payable": false,
      "stateMutability": "nonpayable",
      "type": "function"
    },
    {
      "constant": false,
      "inputs": [
        {
          "name": "_from",
          "type": "address"
        },
        {
          "name": "_to",
          "type": "address"
        },
        {
          "name": "_tokenId",
          "type": "uint256"
        },
        {
          "name": "_data",
          "type": "bytes"
        }
      ],
      "name": "safeTransferFrom",
      "outputs": [],
      "payable": false,
      "stateMutability": "nonpayable",
      "type": "function"
    },
    {
      "constant": true,
      "inputs": [
        {
          "name": "_owner",
          "type": "address"
        },
        {
          "name": "_operator",
          "type": "address"
        }
      ],
      "name": "isApprovedForAll",
      "outputs": [
        {
          "name": "",
          "type": "bool"
        }
      ],
      "payable": false,
      "stateMutability": "view",
      "type": "function"
    },
    {
      "inputs": [
        {
          "name": "_name",
          "type": "string"
        },
        {
          "name": "_symbol",
          "type": "string"
        }
      ],
      "payable": false,
      "stateMutability": "nonpayable",
      "type": "constructor"
    },
    {
      "anonymous": false,
      "inputs": [
        {
          "indexed": true,
          "name": "_from",
          "type": "address"
        },
        {
          "indexed": true,
          "name": "_to",
          "type": "address"
        },
        {
          "indexed": false,
          "name": "_tokenId",
          "type": "uint256"
        }
      ],
      "name": "Transfer",
      "type": "event"
    },
    {
      "anonymous": false,
      "inputs": [
        {
          "indexed": true,
          "name": "_owner",
          "type": "address"
        },
        {
          "indexed": true,
          "name": "_approved",
          "type": "address"
        },
        {
          "indexed": false,
          "name": "_tokenId",
          "type": "uint256"
        }
      ],
      "name": "Approval",
      "type": "event"
    },
    {
      "anonymous": false,
      "inputs": [
        {
          "indexed": true,
          "name": "_owner",
          "type": "address"
        },
        {
          "indexed": true,
          "name": "_operator",
          "type": "address"
        },
        {
          "indexed": false,
          "name": "_approved",
          "type": "bool"
        }
      ],
      "name": "ApprovalForAll",
      "type": "event"
    },
    {
      "constant": true,
      "inputs": [
        {
          "name": "_owner",
          "type": "address"
        }
      ],
      "name": "balanceOf",
      "outputs": [
        {
          "name": "",
          "type": "uint256"
        }
      ],
      "payable": false,
      "stateMutability": "view",
      "type": "function"
    },
    {
      "constant": true,
      "inputs": [],
      "name": "name",
      "outputs": [
        {
          "name": "",
          "type": "string"
        }
      ],
      "payable": false,
      "stateMutability": "view",
      "type": "function"
    },
    {
      "constant": true,
      "inputs": [],
      "name": "symbol",
      "outputs": [
        {
          "name": "",
          "type": "string"
        }
      ],
      "payable": false,
      "stateMutability": "view",
      "type": "function"
    },
    {
      "constant": true,
      "inputs": [
        {
          "name": "_tokenId",
          "type": "uint256"
        }
      ],
      "name": "tokenURI",
      "outputs": [
        {
          "name": "",
          "type": "string"
        }
      ],
      "payable": false,
      "stateMutability": "view",
      "type": "function"
    },
    {
      "constant": true,
      "inputs": [
        {
          "name": "_owner",
          "type": "address"
        },
        {
          "name": "_index",
          "type": "uint256"
        }
      ],
      "name": "tokenOfOwnerByIndex",
      "outputs": [
        {
          "name": "",
          "type": "uint256"
        }
      ],
      "payable": false,
      "stateMutability": "view",
      "type": "function"
    },
    {
      "constant": true,
      "inputs": [],
      "name": "totalSupply",
      "outputs": [
        {
          "name": "",
          "type": "uint256"
        }
      ],
      "payable": false,
      "stateMutability": "view",
      "type": "function"
    },
    {
      "constant": true,
      "inputs": [
        {
          "name": "_index",
          "type": "uint256"
        }
      ],
      "name": "tokenByIndex",
      "outputs": [
        {
          "name": "",
          "type": "uint256"
        }
      ],
      "payable": false,
      "stateMutability": "view",
      "type": "function"
    }
  ],
  "bytecode": "0x60606040526000805463ffffffff191663f0b9e5ba179055341561002257600080fd5b6040516200103338038062001033833981016040528080518201919060200180519091019050600582805161005b929160200190610077565b50600681805161006f929160200190610077565b505050610112565b828054600181600116156101000203166002900490600052602060002090601f016020900481019282601f106100b857805160ff19168380011785556100e5565b828001600101855582156100e5579182015b828111156100e55782518255916020019190600101906100ca565b506100f19291506100f5565b5090565b61010f91905b808211156100f157600081556001016100fb565b90565b610f1180620001226000396000f3006060604052600436106100e55763ffffffff7c010000000000000000000000000000000000000000000000000000000060003504166306fdde0381146100ea578063081812fc14610174578063095ea7b3146101a657806318160ddd146101ca57806323b872dd146101ef5780632f745c591461021757806342842e0e146102395780634f558e79146102615780634f6ccce71461028b5780636352211e146102a157806370a08231146102b757806395d89b41146102d6578063a22cb465146102e9578063b88d4fde1461030d578063c87b56dd14610379578063e985e9c51461038f575b600080fd5b34156100f557600080fd5b6100fd6103b4565b60405160208082528190810183818151815260200191508051906020019080838360005b83811015610139578082015183820152602001610121565b50505050905090810190601f1680156101665780820380516001836020036101000a031916815260200191505b509250505060405180910390f35b341561017f57600080fd5b61018a60043561045d565b604051600160a060020a03909116815260200160405180910390f35b34156101b157600080fd5b6101c8600160a060020a0360043516602435610478565b005b34156101d557600080fd5b6101dd610572565b60405190815260200160405180910390f35b34156101fa57600080fd5b6101c8600160a060020a0360043581169060243516604435610578565b341561022257600080fd5b6101dd600160a060020a03600435166024356105af565b341561024457600080fd5b6101c8600160a060020a03600435811690602435166044356105fd565b341561026c57600080fd5b61027760043561062f565b604051901515815260200160405180910390f35b341561029657600080fd5b6101dd60043561064c565b34156102ac57600080fd5b61018a600435610682565b34156102c257600080fd5b6101dd600160a060020a03600435166106ac565b34156102e157600080fd5b6100fd6106c7565b34156102f457600080fd5b6101c8600160a060020a0360043516602435151561073a565b341561031857600080fd5b6101c8600160a060020a036004803582169160248035909116916044359160849060643590810190830135806020601f820181900481020160405190810160405281815292919060208401838380828437509496506107cb95505050505050565b341561038457600080fd5b6100fd6004356107f6565b341561039a57600080fd5b610277600160a060020a03600435811690602435166108c5565b6103bc610e96565b60058054600181600116156101000203166002900480601f0160208091040260200160405190810160405280929190818152602001828054600181600116156101000203166002900480156104525780601f1061042757610100808354040283529160200191610452565b820191906000526020600020905b81548152906001019060200180831161043557829003601f168201915b505050505090505b90565b600090815260026020526040902054600160a060020a031690565b600061048382610682565b9050600160a060020a03838116908216141561049e57600080fd5b80600160a060020a031633600160a060020a031614806104c357506104c381336108c5565b15156104ce57600080fd5b6104d78261045d565b600160a060020a03161515806104f55750600160a060020a03831615155b1561056d5760008281526002602052604090819020805473ffffffffffffffffffffffffffffffffffffffff1916600160a060020a0386811691821790925591908316907f8c5be1e5ebec7d5bd14f71427d1e84f3dd0314c0f7b2291e5b200ac8c7c3b9259085905190815260200160405180910390a35b505050565b60095490565b8061058333826108f3565b151561058e57600080fd5b6105a984848460206040519081016040526000808252610952565b50505050565b60006105ba836106ac565b82106105c557600080fd5b600160a060020a03831660009081526007602052604090208054839081106105e957fe5b906000526020600020900154905092915050565b8061060833826108f3565b151561061357600080fd5b6105a98484846020604051908101604052600081526001610952565b600090815260016020526040902054600160a060020a0316151590565b6000610656610572565b821061066157600080fd5b600980548390811061066f57fe5b9060005260206000209001549050919050565b600081815260016020526040812054600160a060020a03168015156106a657600080fd5b92915050565b600160a060020a031660009081526007602052604090205490565b6106cf610e96565b60068054600181600116156101000203166002900480601f0160208091040260200160405190810160405280929190818152602001828054600181600116156101000203166002900480156104525780601f1061042757610100808354040283529160200191610452565b33600160a060020a031682600160a060020a03161415151561075b57600080fd5b33600160a060020a0390811660008181526004602090815260408083209487168084529490915290819020805460ff19168515151790557f17307eab39ab6107e8899845ad3d59bd9653f200f220920489ca2b5937696c3190849051901515815260200160405180910390a35050565b816107d633826108f3565b15156107e157600080fd5b6107ef858585856001610952565b5050505050565b6107fe610e96565b6108078261062f565b151561081257600080fd5b600b60008381526020019081526020016000208054600181600116156101000203166002900480601f0160208091040260200160405190810160405280929190818152602001828054600181600116156101000203166002900480156108b95780601f1061088e576101008083540402835291602001916108b9565b820191906000526020600020905b81548152906001019060200180831161089c57829003601f168201915b50505050509050919050565b600160a060020a03918216600090815260046020908152604080832093909416825291909152205460ff1690565b6000806108ff83610682565b905080600160a060020a031684600160a060020a0316148061093a575083600160a060020a031661092f8461045d565b600160a060020a0316145b8061094a575061094a81856108c5565b949350505050565b600160a060020a038516151561096757600080fd5b600160a060020a038416151561097c57600080fd5b61098583610682565b600160a060020a038581169116141561099d57600080fd5b6109a78584610a28565b6109b18584610ad8565b6109bb8484610c36565b8015806109cf57506109cf85858585610ce4565b15156109da57600080fd5b83600160a060020a031685600160a060020a03167fddf252ad1be2c89b69c2b068fc378daa952ba7f163c4a11628f55a4df523b3ef8560405190815260200160405180910390a35050505050565b81600160a060020a0316610a3b82610682565b600160a060020a031614610a4e57600080fd5b600081815260026020526040902054600160a060020a031615610ad457600081815260026020526040808220805473ffffffffffffffffffffffffffffffffffffffff19169055600160a060020a038416907f8c5be1e5ebec7d5bd14f71427d1e84f3dd0314c0f7b2291e5b200ac8c7c3b9259084905190815260200160405180910390a35b5050565b600080600084600160a060020a0316610af085610682565b600160a060020a031614610b0357600080fd5b6000848152600860205260409020549250610b2e6001610b22876106ac565b9063ffffffff610e7c16565b600160a060020a038616600090815260076020526040902080549193509083908110610b5657fe5b6000918252602080832090910154868352600182526040808420805473ffffffffffffffffffffffffffffffffffffffff19169055600160a060020a0389168452600790925291208054919250829185908110610baf57fe5b6000918252602080832090910192909255600160a060020a0387168152600790915260408120805484908110610be157fe5b6000918252602080832090910192909255600160a060020a0387168152600790915260409020805490610c18906000198301610ea8565b50600093845260086020526040808520859055908452909220555050565b600081815260016020526040812054600160a060020a031615610c5857600080fd5b6000828152600160205260409020805473ffffffffffffffffffffffffffffffffffffffff1916600160a060020a038516179055610c95836106ac565b600160a060020a038416600090815260076020526040902080549192509060018101610cc18382610ea8565b506000918252602080832091909101849055928152600890925260409091205550565b6000610cf884600160a060020a0316610e8e565b1580610e7357506000809054906101000a90047c0100000000000000000000000000000000000000000000000000000000027bffffffffffffffffffffffffffffffffffffffffffffffffffffffff191684600160a060020a031663f0b9e5ba8786866000604051602001526040518463ffffffff167c01000000000000000000000000000000000000000000000000000000000281526004018084600160a060020a0316600160a060020a0316815260200183815260200180602001828103825283818151815260200191508051906020019080838360005b83811015610dea578082015183820152602001610dd2565b50505050905090810190601f168015610e175780820380516001836020036101000a031916815260200191505b50945050505050602060405180830381600087803b1515610e3757600080fd5b6102c65a03f11515610e4857600080fd5b505050604051805190507bffffffffffffffffffffffffffffffffffffffffffffffffffffffff1916145b95945050505050565b600082821115610e8857fe5b50900390565b6000903b1190565b60206040519081016040526000815290565b81548183558181151161056d5760008381526020902061056d91810190830161045a91905b80821115610ee15760008155600101610ecd565b50905600a165627a7a723058208f9e17d212780681aceea4e6b9769a249ffa2b4560a4d3afe9d5b91aa7fe9d1f0029",
  "source": "pragma solidity ^0.4.18;\n\nimport \"./ERC721.sol\";\nimport \"./DeprecatedERC721.sol\";\nimport \"./ERC721BasicToken.sol\";\n\n\n/**\n * @title Full ERC721 Token\n * This implementation includes all the required and some optional functionality of the ERC721 standard\n * Moreover, it includes approve all functionality using operatable terminology\n * @dev see https://github.com/ethereum/eips/issues/721\n */\ncontract ERC721Token is ERC721, ERC721BasicToken {\n  // Token name\n  string internal name_;\n\n  // Token symbol\n  string internal symbol_;\n\n  // Mapping from owner to list of owned token IDs\n  mapping (address => uint256[]) internal ownedTokens;\n\n  // Mapping from token ID to index of the owner tokens list\n  mapping(uint256 => uint256) internal ownedTokensIndex;\n\n  // Array with all token ids, used for enumeration\n  uint256[] internal allTokens;\n\n  // Mapping from token id to position in the allTokens array\n  mapping(uint256 => uint256) internal allTokensIndex;\n\n  // Optional mapping for token URIs\n  mapping(uint256 => string) internal tokenURIs;\n\n  /**\n  * @dev Constructor function\n  */\n  function ERC721Token(string _name, string _symbol) public {\n    name_ = _name;\n    symbol_ = _symbol;\n  }\n\n  /**\n  * @dev Gets the balance of the specified address\n  * @param _owner address to query the balance of\n  * @return uint256 representing the amount owned by the passed address\n  */\n  function balanceOf(address _owner) public view returns (uint256) {\n    return ownedTokens[_owner].length;\n  }\n\n  /**\n  * @dev Gets the token name\n  * @return string representing the token name\n  */\n  function name() public view returns (string) {\n    return name_;\n  }\n\n  /**\n  * @dev Gets the token symbol\n  * @return string representing the token symbol\n  */\n  function symbol() public view returns (string) {\n    return symbol_;\n  }\n\n  /**\n  * @dev Returns an URI for a given token ID\n  * @dev Throws if the token ID does not exist. May return an empty string.\n  * @param _tokenId uint256 ID of the token to query\n  */\n  function tokenURI(uint256 _tokenId) public view returns (string) {\n    require(exists(_tokenId));\n    return tokenURIs[_tokenId];\n  }\n\n  /**\n  * @dev Internal function to set the token URI for a given token\n  * @dev Reverts if the token ID does not exist\n  * @param _tokenId uint256 ID of the token to set its URI\n  * @param _uri string URI to assign\n  */\n  function doSetTokenURI(uint256 _tokenId, string _uri) internal {\n    require(exists(_tokenId));\n    tokenURIs[_tokenId] = _uri;\n  }\n\n  /**\n  * @dev Gets the token ID at a given index of the tokens list of the requested owner\n  * @param _owner address owning the tokens list to be accessed\n  * @param _index uint256 representing the index to be accessed of the requested tokens list\n  * @return uint256 token ID at the given index of the tokens list owned by the requested address\n  */\n  function tokenOfOwnerByIndex(address _owner, uint256 _index) public view returns (uint256) {\n    require(_index < balanceOf(_owner));\n    return ownedTokens[_owner][_index];\n  }\n\n  /**\n  * @dev Gets the total amount of tokens stored by the contract\n  * @return uint256 representing the total amount of tokens\n  */\n  function totalSupply() public view returns (uint256) {\n    return allTokens.length;\n  }\n\n  /**\n  * @dev Gets the token ID at a given index of all the tokens in this contract\n  * @dev Reverts if the index is greater or equal to the total number of tokens\n  * @param _index uint256 representing the index to be accessed of the tokens list\n  * @return uint256 token ID at the given index of the tokens list\n  */\n  function tokenByIndex(uint256 _index) public view returns (uint256) {\n    require(_index < totalSupply());\n    return allTokens[_index];\n  }\n\n  /**\n  * @dev Internal function to add a token ID to the list of a given address\n  * @param _to address representing the new owner of the given token ID\n  * @param _tokenId uint256 ID of the token to be added to the tokens list of the given address\n  */\n  function addToken(address _to, uint256 _tokenId) internal {\n    require(tokenOwner[_tokenId] == address(0));\n    tokenOwner[_tokenId] = _to;\n    uint256 length = balanceOf(_to);\n    ownedTokens[_to].push(_tokenId);\n    ownedTokensIndex[_tokenId] = length;\n  }\n\n  /**\n  * @dev Internal function to remove a token ID from the list of a given address\n  * @param _from address representing the previous owner of the given token ID\n  * @param _tokenId uint256 ID of the token to be removed from the tokens list of the given address\n  */\n  function removeToken(address _from, uint256 _tokenId) internal {\n    require(ownerOf(_tokenId) == _from);\n\n    uint256 tokenIndex = ownedTokensIndex[_tokenId];\n    uint256 lastTokenIndex = balanceOf(_from).sub(1);\n    uint256 lastToken = ownedTokens[_from][lastTokenIndex];\n\n    tokenOwner[_tokenId] = 0;\n    ownedTokens[_from][tokenIndex] = lastToken;\n    ownedTokens[_from][lastTokenIndex] = 0;\n    // Note that this will handle single-element arrays. In that case, both tokenIndex and lastTokenIndex are going to\n    // be zero. Then we can make sure that we will remove _tokenId from the ownedTokens list since we are first swapping\n    // the lastToken to the first position, and then dropping the element placed in the last position of the list\n\n    ownedTokens[_from].length--;\n    ownedTokensIndex[_tokenId] = 0;\n    ownedTokensIndex[lastToken] = tokenIndex;\n  }\n\n  /**\n  * @dev Internal function to mint a new token\n  * @dev Reverts if the given token ID already exists\n  * @param _to address the beneficiary that will own the minted token\n  * @param _tokenId uint256 ID of the token to be minted by the msg.sender\n  */\n  function doMint(address _to, uint256 _tokenId) internal {\n    super.doMint(_to, _tokenId);\n\n    allTokensIndex[_tokenId] = allTokens.length;\n    allTokens.push(_tokenId);\n  }\n\n  /**\n  * @dev Internal function to burn a specific token\n  * @dev Reverts if the token does not exist\n  * @param _owner owner of the token to burn\n  * @param _tokenId uint256 ID of the token being burned by the msg.sender\n  */\n  function doBurn(address _owner, uint256 _tokenId) internal {\n    super.doBurn(_owner, _tokenId);\n\n    // Clear metadata (if any)\n    if (bytes(tokenURIs[_tokenId]).length == 0) {\n      delete tokenURIs[_tokenId];\n    }\n\n    // Reorg all tokens array\n    uint256 tokenIndex = allTokensIndex[_tokenId];\n    uint256 lastTokenIndex = allTokens.length.sub(1);\n    uint256 lastToken = allTokens[lastTokenIndex];\n\n    allTokens[tokenIndex] = lastToken;\n    allTokens[lastTokenIndex] = 0;\n\n    allTokens.length--;\n    allTokensIndex[_tokenId] = 0;\n    allTokensIndex[lastToken] = tokenIndex;\n  }\n\n}\n",
  "sourcePath": "/Users/j/Coding/dustbowl/contracts/ERC721Token.sol",
  "compiler": {
    "name": "solc",
    "version": "0.4.19+commit.c4cbbb05.Emscripten.clang"
  },
  "schemaVersion": "1.0.1",
  "updatedAt": "2018-03-22T20:52:14.694Z"
}