{
  "contractName": "Water",
  "abi": [
    {
      "constant": true,
      "inputs": [],
      "name": "mintingFinished",
      "outputs": [
        {
          "name": "",
          "type": "bool"
        }
      ],
      "payable": false,
      "stateMutability": "view",
      "type": "function"
    },
    {
      "constant": true,
      "inputs": [],
      "name": "name",
      "outputs": [
        {
          "name": "",
          "type": "string"
        }
      ],
      "payable": false,
      "stateMutability": "view",
      "type": "function"
    },
    {
      "constant": false,
      "inputs": [
        {
          "name": "_spender",
          "type": "address"
        },
        {
          "name": "_value",
          "type": "uint256"
        }
      ],
      "name": "approve",
      "outputs": [
        {
          "name": "",
          "type": "bool"
        }
      ],
      "payable": false,
      "stateMutability": "nonpayable",
      "type": "function"
    },
    {
      "constant": true,
      "inputs": [],
      "name": "totalSupply",
      "outputs": [
        {
          "name": "",
          "type": "uint256"
        }
      ],
      "payable": false,
      "stateMutability": "view",
      "type": "function"
    },
    {
      "constant": false,
      "inputs": [
        {
          "name": "_from",
          "type": "address"
        },
        {
          "name": "_to",
          "type": "address"
        },
        {
          "name": "_value",
          "type": "uint256"
        }
      ],
      "name": "transferFrom",
      "outputs": [
        {
          "name": "",
          "type": "bool"
        }
      ],
      "payable": false,
      "stateMutability": "nonpayable",
      "type": "function"
    },
    {
      "constant": true,
      "inputs": [],
      "name": "INITIAL_SUPPLY",
      "outputs": [
        {
          "name": "",
          "type": "uint256"
        }
      ],
      "payable": false,
      "stateMutability": "view",
      "type": "function"
    },
    {
      "constant": true,
      "inputs": [],
      "name": "decimals",
      "outputs": [
        {
          "name": "",
          "type": "uint256"
        }
      ],
      "payable": false,
      "stateMutability": "view",
      "type": "function"
    },
    {
      "constant": false,
      "inputs": [
        {
          "name": "_to",
          "type": "address"
        },
        {
          "name": "_amount",
          "type": "uint256"
        }
      ],
      "name": "mint",
      "outputs": [
        {
          "name": "",
          "type": "bool"
        }
      ],
      "payable": false,
      "stateMutability": "nonpayable",
      "type": "function"
    },
    {
      "constant": false,
      "inputs": [
        {
          "name": "_spender",
          "type": "address"
        },
        {
          "name": "_subtractedValue",
          "type": "uint256"
        }
      ],
      "name": "decreaseApproval",
      "outputs": [
        {
          "name": "",
          "type": "bool"
        }
      ],
      "payable": false,
      "stateMutability": "nonpayable",
      "type": "function"
    },
    {
      "constant": true,
      "inputs": [
        {
          "name": "_owner",
          "type": "address"
        }
      ],
      "name": "balanceOf",
      "outputs": [
        {
          "name": "",
          "type": "uint256"
        }
      ],
      "payable": false,
      "stateMutability": "view",
      "type": "function"
    },
    {
      "constant": false,
      "inputs": [],
      "name": "finishMinting",
      "outputs": [
        {
          "name": "",
          "type": "bool"
        }
      ],
      "payable": false,
      "stateMutability": "nonpayable",
      "type": "function"
    },
    {
      "constant": true,
      "inputs": [],
      "name": "owner",
      "outputs": [
        {
          "name": "",
          "type": "address"
        }
      ],
      "payable": false,
      "stateMutability": "view",
      "type": "function"
    },
    {
      "constant": true,
      "inputs": [],
      "name": "symbol",
      "outputs": [
        {
          "name": "",
          "type": "string"
        }
      ],
      "payable": false,
      "stateMutability": "view",
      "type": "function"
    },
    {
      "constant": false,
      "inputs": [
        {
          "name": "_to",
          "type": "address"
        },
        {
          "name": "_value",
          "type": "uint256"
        }
      ],
      "name": "transfer",
      "outputs": [
        {
          "name": "",
          "type": "bool"
        }
      ],
      "payable": false,
      "stateMutability": "nonpayable",
      "type": "function"
    },
    {
      "constant": false,
      "inputs": [
        {
          "name": "_spender",
          "type": "address"
        },
        {
          "name": "_addedValue",
          "type": "uint256"
        }
      ],
      "name": "increaseApproval",
      "outputs": [
        {
          "name": "",
          "type": "bool"
        }
      ],
      "payable": false,
      "stateMutability": "nonpayable",
      "type": "function"
    },
    {
      "constant": true,
      "inputs": [
        {
          "name": "_owner",
          "type": "address"
        },
        {
          "name": "_spender",
          "type": "address"
        }
      ],
      "name": "allowance",
      "outputs": [
        {
          "name": "",
          "type": "uint256"
        }
      ],
      "payable": false,
      "stateMutability": "view",
      "type": "function"
    },
    {
      "constant": false,
      "inputs": [
        {
          "name": "newOwner",
          "type": "address"
        }
      ],
      "name": "transferOwnership",
      "outputs": [],
      "payable": false,
      "stateMutability": "nonpayable",
      "type": "function"
    },
    {
      "inputs": [],
      "payable": false,
      "stateMutability": "nonpayable",
      "type": "constructor"
    },
    {
      "anonymous": false,
      "inputs": [
        {
          "indexed": true,
          "name": "to",
          "type": "address"
        },
        {
          "indexed": false,
          "name": "amount",
          "type": "uint256"
        }
      ],
      "name": "Mint",
      "type": "event"
    },
    {
      "anonymous": false,
      "inputs": [],
      "name": "MintFinished",
      "type": "event"
    },
    {
      "anonymous": false,
      "inputs": [
        {
          "indexed": true,
          "name": "previousOwner",
          "type": "address"
        },
        {
          "indexed": true,
          "name": "newOwner",
          "type": "address"
        }
      ],
      "name": "OwnershipTransferred",
      "type": "event"
    },
    {
      "anonymous": false,
      "inputs": [
        {
          "indexed": true,
          "name": "owner",
          "type": "address"
        },
        {
          "indexed": true,
          "name": "spender",
          "type": "address"
        },
        {
          "indexed": false,
          "name": "value",
          "type": "uint256"
        }
      ],
      "name": "Approval",
      "type": "event"
    },
    {
      "anonymous": false,
      "inputs": [
        {
          "indexed": true,
          "name": "from",
          "type": "address"
        },
        {
          "indexed": true,
          "name": "to",
          "type": "address"
        },
        {
          "indexed": false,
          "name": "value",
          "type": "uint256"
        }
      ],
      "name": "Transfer",
      "type": "event"
    }
  ],
  "bytecode": "0x6003805460a060020a60ff021916905560c0604052600560808190527f576174657200000000000000000000000000000000000000000000000000000060a090815261004e91600491906100e6565b506040805180820190915260048082527ff09f92a7000000000000000000000000000000000000000000000000000000006020909201918252610093916005916100e6565b50601260065560006007553480156100aa57600080fd5b5060038054600160a060020a03191633600160a060020a0316908117909155600754600181905560009182526020829052604090912055610181565b828054600181600116156101000203166002900490600052602060002090601f016020900481019282601f1061012757805160ff1916838001178555610154565b82800160010185558215610154579182015b82811115610154578251825591602001919060010190610139565b50610160929150610164565b5090565b61017e91905b80821115610160576000815560010161016a565b90565b610c3f806101906000396000f3006080604052600436106100f05763ffffffff7c010000000000000000000000000000000000000000000000000000000060003504166305d2035b81146100f557806306fdde031461011e578063095ea7b3146101a857806318160ddd146101cc57806323b872dd146101f35780632ff2e9dc1461021d578063313ce5671461023257806340c10f1914610247578063661884631461026b57806370a082311461028f5780637d64bcb4146102b05780638da5cb5b146102c557806395d89b41146102f6578063a9059cbb1461030b578063d73dd6231461032f578063dd62ed3e14610353578063f2fde38b1461037a575b600080fd5b34801561010157600080fd5b5061010a61039d565b604080519115158252519081900360200190f35b34801561012a57600080fd5b506101336103be565b6040805160208082528351818301528351919283929083019185019080838360005b8381101561016d578181015183820152602001610155565b50505050905090810190601f16801561019a5780820380516001836020036101000a031916815260200191505b509250505060405180910390f35b3480156101b457600080fd5b5061010a600160a060020a036004351660243561044c565b3480156101d857600080fd5b506101e16104b6565b60408051918252519081900360200190f35b3480156101ff57600080fd5b5061010a600160a060020a03600435811690602435166044356104bc565b34801561022957600080fd5b506101e161063c565b34801561023e57600080fd5b506101e1610642565b34801561025357600080fd5b5061010a600160a060020a0360043516602435610648565b34801561027757600080fd5b5061010a600160a060020a0360043516602435610767565b34801561029b57600080fd5b506101e1600160a060020a0360043516610860565b3480156102bc57600080fd5b5061010a61087b565b3480156102d157600080fd5b506102da610925565b60408051600160a060020a039092168252519081900360200190f35b34801561030257600080fd5b50610133610934565b34801561031757600080fd5b5061010a600160a060020a036004351660243561098f565b34801561033b57600080fd5b5061010a600160a060020a0360043516602435610a88565b34801561035f57600080fd5b506101e1600160a060020a0360043581169060243516610b2a565b34801561038657600080fd5b5061039b600160a060020a0360043516610b55565b005b60035474010000000000000000000000000000000000000000900460ff1681565b6004805460408051602060026001851615610100026000190190941693909304601f810184900484028201840190925281815292918301828280156104445780601f1061041957610100808354040283529160200191610444565b820191906000526020600020905b81548152906001019060200180831161042757829003601f168201915b505050505081565b600160a060020a03338116600081815260026020908152604080832094871680845294825280832086905580518681529051929493927f8c5be1e5ebec7d5bd14f71427d1e84f3dd0314c0f7b2291e5b200ac8c7c3b925929181900390910190a350600192915050565b60015490565b6000600160a060020a03831615156104d357600080fd5b600160a060020a0384166000908152602081905260409020548211156104f857600080fd5b600160a060020a038085166000908152600260209081526040808320339094168352929052205482111561052b57600080fd5b600160a060020a038416600090815260208190526040902054610554908363ffffffff610bee16565b600160a060020a038086166000908152602081905260408082209390935590851681522054610589908363ffffffff610c0016565b600160a060020a03808516600090815260208181526040808320949094558783168252600281528382203390931682529190915220546105cf908363ffffffff610bee16565b600160a060020a038086166000818152600260209081526040808320338616845282529182902094909455805186815290519287169391927fddf252ad1be2c89b69c2b068fc378daa952ba7f163c4a11628f55a4df523b3ef929181900390910190a35060019392505050565b60075481565b60065481565b60035460009033600160a060020a0390811691161461066657600080fd5b60035474010000000000000000000000000000000000000000900460ff161561068e57600080fd5b6001546106a1908363ffffffff610c0016565b600155600160a060020a0383166000908152602081905260409020546106cd908363ffffffff610c0016565b600160a060020a03841660008181526020818152604091829020939093558051858152905191927f0f6798a560793a54c3bcfe86a93cde1e73087d944c0ea20544137d412139688592918290030190a2604080518381529051600160a060020a038516916000917fddf252ad1be2c89b69c2b068fc378daa952ba7f163c4a11628f55a4df523b3ef9181900360200190a350600192915050565b600160a060020a033381166000908152600260209081526040808320938616835292905290812054808311156107c457600160a060020a0333811660009081526002602090815260408083209388168352929052908120556107fb565b6107d4818463ffffffff610bee16565b600160a060020a033381166000908152600260209081526040808320938916835292905220555b600160a060020a0333811660008181526002602090815260408083209489168084529482529182902054825190815291517f8c5be1e5ebec7d5bd14f71427d1e84f3dd0314c0f7b2291e5b200ac8c7c3b9259281900390910190a35060019392505050565b600160a060020a031660009081526020819052604090205490565b60035460009033600160a060020a0390811691161461089957600080fd5b60035474010000000000000000000000000000000000000000900460ff16156108c157600080fd5b6003805474ff00000000000000000000000000000000000000001916740100000000000000000000000000000000000000001790556040517fae5184fba832cb2b1f702aca6117b8d265eaf03ad33eb133f19dde0f5920fa0890600090a150600190565b600354600160a060020a031681565b6005805460408051602060026001851615610100026000190190941693909304601f810184900484028201840190925281815292918301828280156104445780601f1061041957610100808354040283529160200191610444565b6000600160a060020a03831615156109a657600080fd5b600160a060020a0333166000908152602081905260409020548211156109cb57600080fd5b600160a060020a0333166000908152602081905260409020546109f4908363ffffffff610bee16565b600160a060020a033381166000908152602081905260408082209390935590851681522054610a29908363ffffffff610c0016565b600160a060020a03808516600081815260208181526040918290209490945580518681529051919333909316927fddf252ad1be2c89b69c2b068fc378daa952ba7f163c4a11628f55a4df523b3ef92918290030190a350600192915050565b600160a060020a033381166000908152600260209081526040808320938616835292905290812054610ac0908363ffffffff610c0016565b600160a060020a0333811660008181526002602090815260408083209489168084529482529182902085905581519485529051929391927f8c5be1e5ebec7d5bd14f71427d1e84f3dd0314c0f7b2291e5b200ac8c7c3b9259281900390910190a350600192915050565b600160a060020a03918216600090815260026020908152604080832093909416825291909152205490565b60035433600160a060020a03908116911614610b7057600080fd5b600160a060020a0381161515610b8557600080fd5b600354604051600160a060020a038084169216907f8be0079c531659141344cd1fd0a4f28419497f9722a3daafe3b4186f6b6457e090600090a36003805473ffffffffffffffffffffffffffffffffffffffff1916600160a060020a0392909216919091179055565b600082821115610bfa57fe5b50900390565b81810182811015610c0d57fe5b929150505600a165627a7a72305820d64228a1bd2cf364b4458a6b230d137270c91ace4db5c35de04fe54c6f90b2e80029",
  "source": "pragma solidity ^0.4.23;\n\nimport \"openzeppelin-solidity/contracts/token/ERC20/MintableToken.sol\";\n\ncontract Water is MintableToken {\n  string public name = \"Water\";\n  string public symbol = \"💧\";\n  uint public decimals = 18;\n  uint public INITIAL_SUPPLY = 0;\n\n  constructor() public {\n    totalSupply_ = INITIAL_SUPPLY;\n    balances[msg.sender] = INITIAL_SUPPLY;\n  }\n}\n",
  "sourcePath": "/Users/j/Coding/dustbowl/contracts/Water.sol",
  "compiler": {
    "name": "solc",
    "version": "0.4.23+commit.124ca40d.Emscripten.clang"
  },
  "schemaVersion": "2.0.0",
  "updatedAt": "2018-05-14T18:27:09.035Z"
}